{
  "_format": "hh-sol-artifact-1",
  "contractName": "PatientFundraising",
  "sourceName": "contracts/PatientFundraising.sol",
  "abi": [
    {
      "inputs": [],
      "stateMutability": "nonpayable",
      "type": "constructor"
    },
    {
      "anonymous": false,
      "inputs": [
        {
          "indexed": false,
          "internalType": "uint256",
          "name": "patientId",
          "type": "uint256"
        },
        {
          "indexed": false,
          "internalType": "address",
          "name": "donor",
          "type": "address"
        },
        {
          "indexed": false,
          "internalType": "uint256",
          "name": "amount",
          "type": "uint256"
        }
      ],
      "name": "DonationReceived",
      "type": "event"
    },
    {
      "anonymous": false,
      "inputs": [
        {
          "indexed": false,
          "internalType": "uint256",
          "name": "patientId",
          "type": "uint256"
        },
        {
          "indexed": false,
          "internalType": "address",
          "name": "vendor",
          "type": "address"
        },
        {
          "indexed": false,
          "internalType": "uint256",
          "name": "amount",
          "type": "uint256"
        },
        {
          "indexed": false,
          "internalType": "string",
          "name": "purpose",
          "type": "string"
        }
      ],
      "name": "VendorPayment",
      "type": "event"
    },
    {
      "inputs": [
        {
          "internalType": "address payable",
          "name": "_patientAddress",
          "type": "address"
        },
        {
          "internalType": "string",
          "name": "_name",
          "type": "string"
        },
        {
          "internalType": "string",
          "name": "_condition",
          "type": "string"
        },
        {
          "internalType": "uint256",
          "name": "_target",
          "type": "uint256"
        }
      ],
      "name": "addTestPatient",
      "outputs": [],
      "stateMutability": "nonpayable",
      "type": "function"
    },
    {
      "inputs": [
        {
          "internalType": "address",
          "name": "_vendorAddress",
          "type": "address"
        }
      ],
      "name": "addTestVendor",
      "outputs": [],
      "stateMutability": "nonpayable",
      "type": "function"
    },
    {
      "inputs": [],
      "name": "admin",
      "outputs": [
        {
          "internalType": "address",
          "name": "",
          "type": "address"
        }
      ],
      "stateMutability": "view",
      "type": "function"
    },
    {
      "inputs": [
        {
          "internalType": "uint256",
          "name": "_patientId",
          "type": "uint256"
        },
        {
          "internalType": "string",
          "name": "_purpose",
          "type": "string"
        }
      ],
      "name": "donateToPatient",
      "outputs": [],
      "stateMutability": "payable",
      "type": "function"
    },
    {
      "inputs": [],
      "name": "getAllTransactions",
      "outputs": [
        {
          "components": [
            {
              "internalType": "address",
              "name": "from",
              "type": "address"
            },
            {
              "internalType": "address",
              "name": "to",
              "type": "address"
            },
            {
              "internalType": "uint256",
              "name": "amount",
              "type": "uint256"
            },
            {
              "internalType": "uint256",
              "name": "timestamp",
              "type": "uint256"
            },
            {
              "internalType": "string",
              "name": "purpose",
              "type": "string"
            }
          ],
          "internalType": "struct PatientFundraising.Transaction[]",
          "name": "",
          "type": "tuple[]"
        }
      ],
      "stateMutability": "view",
      "type": "function"
    },
    {
      "inputs": [],
      "name": "patientCount",
      "outputs": [
        {
          "internalType": "uint256",
          "name": "",
          "type": "uint256"
        }
      ],
      "stateMutability": "view",
      "type": "function"
    },
    {
      "inputs": [
        {
          "internalType": "uint256",
          "name": "",
          "type": "uint256"
        }
      ],
      "name": "patientFunds",
      "outputs": [
        {
          "internalType": "uint256",
          "name": "",
          "type": "uint256"
        }
      ],
      "stateMutability": "view",
      "type": "function"
    },
    {
      "inputs": [
        {
          "internalType": "uint256",
          "name": "",
          "type": "uint256"
        }
      ],
      "name": "patients",
      "outputs": [
        {
          "internalType": "address payable",
          "name": "patientAddress",
          "type": "address"
        },
        {
          "internalType": "string",
          "name": "name",
          "type": "string"
        },
        {
          "internalType": "string",
          "name": "medicalCondition",
          "type": "string"
        },
        {
          "internalType": "uint256",
          "name": "targetAmount",
          "type": "uint256"
        },
        {
          "internalType": "uint256",
          "name": "raisedAmount",
          "type": "uint256"
        },
        {
          "internalType": "bool",
          "name": "isVerified",
          "type": "bool"
        }
      ],
      "stateMutability": "view",
      "type": "function"
    },
    {
      "inputs": [
        {
          "internalType": "uint256",
          "name": "_patientId",
          "type": "uint256"
        },
        {
          "internalType": "address payable",
          "name": "_vendorAddress",
          "type": "address"
        },
        {
          "internalType": "uint256",
          "name": "_amount",
          "type": "uint256"
        },
        {
          "internalType": "string",
          "name": "_purpose",
          "type": "string"
        }
      ],
      "name": "payVendor",
      "outputs": [],
      "stateMutability": "nonpayable",
      "type": "function"
    },
    {
      "inputs": [
        {
          "internalType": "uint256",
          "name": "",
          "type": "uint256"
        }
      ],
      "name": "transactions",
      "outputs": [
        {
          "internalType": "address",
          "name": "from",
          "type": "address"
        },
        {
          "internalType": "address",
          "name": "to",
          "type": "address"
        },
        {
          "internalType": "uint256",
          "name": "amount",
          "type": "uint256"
        },
        {
          "internalType": "uint256",
          "name": "timestamp",
          "type": "uint256"
        },
        {
          "internalType": "string",
          "name": "purpose",
          "type": "string"
        }
      ],
      "stateMutability": "view",
      "type": "function"
    },
    {
      "inputs": [
        {
          "internalType": "address",
          "name": "",
          "type": "address"
        }
      ],
      "name": "verifiedVendors",
      "outputs": [
        {
          "internalType": "bool",
          "name": "",
          "type": "bool"
        }
      ],
      "stateMutability": "view",
      "type": "function"
    }
  ],
  "bytecode": "0x608060405234801561001057600080fd5b50336000806101000a81548173ffffffffffffffffffffffffffffffffffffffff021916908373ffffffffffffffffffffffffffffffffffffffff1602179055506000600581905550611ead806100686000396000f3fe60806040526004361061009c5760003560e01c806376a0931e1161006457806376a0931e1461018457806393119a83146101c15780639ace38c214610203578063a0303c4114610244578063bb87675e1461026f578063f851a4401461028b5761009c565b80630c0d0bd5146100a157806327506f53146100ca5780632c77de4b146100f5578063375a88091461011e5780634ae7c4991461015b575b600080fd5b3480156100ad57600080fd5b506100c860048036038101906100c3919061117b565b6102b6565b005b3480156100d657600080fd5b506100df6103da565b6040516100ec9190611401565b60405180910390f35b34801561010157600080fd5b5061011c6004803603810190610117919061144f565b61058b565b005b34801561012a57600080fd5b506101456004803603810190610140919061147c565b6105e6565b60405161015291906114b8565b60405180910390f35b34801561016757600080fd5b50610182600480360381019061017d91906114d3565b6105fe565b005b34801561019057600080fd5b506101ab60048036038101906101a6919061144f565b6109c1565b6040516101b89190611571565b60405180910390f35b3480156101cd57600080fd5b506101e860048036038101906101e3919061147c565b6109e1565b6040516101fa969594939291906115e5565b60405180910390f35b34801561020f57600080fd5b5061022a6004803603810190610225919061147c565b610b5a565b60405161023b959493929190611663565b60405180910390f35b34801561025057600080fd5b50610259610c68565b60405161026691906114b8565b60405180910390f35b610289600480360381019061028491906116bd565b610c6e565b005b34801561029757600080fd5b506102a0610f69565b6040516102ad9190611719565b60405180910390f35b600560008154809291906102c990611763565b91905055506040518060c001604052808573ffffffffffffffffffffffffffffffffffffffff168152602001848152602001838152602001828152602001600081526020016001151581525060016000600554815260200190815260200160002060008201518160000160006101000a81548173ffffffffffffffffffffffffffffffffffffffff021916908373ffffffffffffffffffffffffffffffffffffffff160217905550602082015181600101908161038691906119b7565b50604082015181600201908161039c91906119b7565b50606082015181600301556080820151816004015560a08201518160050160006101000a81548160ff02191690831515021790555090505050505050565b60606004805480602002602001604051908101604052809291908181526020016000905b8282101561058257838290600052602060002090600502016040518060a00160405290816000820160009054906101000a900473ffffffffffffffffffffffffffffffffffffffff1673ffffffffffffffffffffffffffffffffffffffff1673ffffffffffffffffffffffffffffffffffffffff1681526020016001820160009054906101000a900473ffffffffffffffffffffffffffffffffffffffff1673ffffffffffffffffffffffffffffffffffffffff1673ffffffffffffffffffffffffffffffffffffffff16815260200160028201548152602001600382015481526020016004820180546104f1906117da565b80601f016020809104026020016040519081016040528092919081815260200182805461051d906117da565b801561056a5780601f1061053f5761010080835404028352916020019161056a565b820191906000526020600020905b81548152906001019060200180831161054d57829003601f168201915b505050505081525050815260200190600101906103fe565b50505050905090565b6001600260008373ffffffffffffffffffffffffffffffffffffffff1673ffffffffffffffffffffffffffffffffffffffff16815260200190815260200160002060006101000a81548160ff02191690831515021790555050565b60036020528060005260406000206000915090505481565b60008411801561061057506005548411155b61064f576040517f08c379a000000000000000000000000000000000000000000000000000000000815260040161064690611ad5565b60405180910390fd5b6001600085815260200190815260200160002060000160009054906101000a900473ffffffffffffffffffffffffffffffffffffffff1673ffffffffffffffffffffffffffffffffffffffff163373ffffffffffffffffffffffffffffffffffffffff16146106f3576040517f08c379a00000000000000000000000000000000000000000000000000000000081526004016106ea90611b41565b60405180910390fd5b600260008473ffffffffffffffffffffffffffffffffffffffff1673ffffffffffffffffffffffffffffffffffffffff16815260200190815260200160002060009054906101000a900460ff1661077f576040517f08c379a000000000000000000000000000000000000000000000000000000000815260040161077690611bad565b60405180910390fd5b81600360008681526020019081526020016000205410156107d5576040517f08c379a00000000000000000000000000000000000000000000000000000000081526004016107cc90611c19565b60405180910390fd5b816003600086815260200190815260200160002060008282546107f89190611c39565b925050819055508273ffffffffffffffffffffffffffffffffffffffff166108fc839081150290604051600060405180830381858888f19350505050158015610845573d6000803e3d6000fd5b5060046040518060a001604052803373ffffffffffffffffffffffffffffffffffffffff1681526020018573ffffffffffffffffffffffffffffffffffffffff16815260200184815260200142815260200183815250908060018154018082558091505060019003906000526020600020906005020160009091909190915060008201518160000160006101000a81548173ffffffffffffffffffffffffffffffffffffffff021916908373ffffffffffffffffffffffffffffffffffffffff16021790555060208201518160010160006101000a81548173ffffffffffffffffffffffffffffffffffffffff021916908373ffffffffffffffffffffffffffffffffffffffff1602179055506040820151816002015560608201518160030155608082015181600401908161097b91906119b7565b5050507f6b5e54ef90247c8216d126ef058dd6a77173609e6ae0a979baafa1fc3b53ef9b848484846040516109b39493929190611cc2565b60405180910390a150505050565b60026020528060005260406000206000915054906101000a900460ff1681565b60016020528060005260406000206000915090508060000160009054906101000a900473ffffffffffffffffffffffffffffffffffffffff1690806001018054610a2a906117da565b80601f0160208091040260200160405190810160405280929190818152602001828054610a56906117da565b8015610aa35780601f10610a7857610100808354040283529160200191610aa3565b820191906000526020600020905b815481529060010190602001808311610a8657829003601f168201915b505050505090806002018054610ab8906117da565b80601f0160208091040260200160405190810160405280929190818152602001828054610ae4906117da565b8015610b315780601f10610b0657610100808354040283529160200191610b31565b820191906000526020600020905b815481529060010190602001808311610b1457829003601f168201915b5050505050908060030154908060040154908060050160009054906101000a900460ff16905086565b60048181548110610b6a57600080fd5b90600052602060002090600502016000915090508060000160009054906101000a900473ffffffffffffffffffffffffffffffffffffffff16908060010160009054906101000a900473ffffffffffffffffffffffffffffffffffffffff1690806002015490806003015490806004018054610be5906117da565b80601f0160208091040260200160405190810160405280929190818152602001828054610c11906117da565b8015610c5e5780601f10610c3357610100808354040283529160200191610c5e565b820191906000526020600020905b815481529060010190602001808311610c4157829003601f168201915b5050505050905085565b60055481565b600082118015610c8057506005548211155b610cbf576040517f08c379a0000000000000000000000000000000000000000000000000000000008152600401610cb690611ad5565b60405180910390fd5b6001600083815260200190815260200160002060050160009054906101000a900460ff16610d22576040517f08c379a0000000000000000000000000000000000000000000000000000000008152600401610d1990611d5a565b60405180910390fd5b60003411610d65576040517f08c379a0000000000000000000000000000000000000000000000000000000008152600401610d5c90611dec565b60405180910390fd5b34600160008481526020019081526020016000206004016000828254610d8b9190611e0c565b9250508190555034600360008481526020019081526020016000206000828254610db59190611e0c565b9250508190555060046040518060a001604052803373ffffffffffffffffffffffffffffffffffffffff1681526020016001600086815260200190815260200160002060000160009054906101000a900473ffffffffffffffffffffffffffffffffffffffff1673ffffffffffffffffffffffffffffffffffffffff16815260200134815260200142815260200183815250908060018154018082558091505060019003906000526020600020906005020160009091909190915060008201518160000160006101000a81548173ffffffffffffffffffffffffffffffffffffffff021916908373ffffffffffffffffffffffffffffffffffffffff16021790555060208201518160010160006101000a81548173ffffffffffffffffffffffffffffffffffffffff021916908373ffffffffffffffffffffffffffffffffffffffff16021790555060408201518160020155606082015181600301556080820151816004019081610f2791906119b7565b5050507f0b5b4c52969ff7329ecf7ee536409fda87812b15a8622bc6e8cdeab3aee14a26823334604051610f5d93929190611e40565b60405180910390a15050565b60008054906101000a900473ffffffffffffffffffffffffffffffffffffffff1681565b6000604051905090565b600080fd5b600080fd5b600073ffffffffffffffffffffffffffffffffffffffff82169050919050565b6000610fcc82610fa1565b9050919050565b610fdc81610fc1565b8114610fe757600080fd5b50565b600081359050610ff981610fd3565b92915050565b600080fd5b600080fd5b6000601f19601f8301169050919050565b7f4e487b7100000000000000000000000000000000000000000000000000000000600052604160045260246000fd5b61105282611009565b810181811067ffffffffffffffff821117156110715761107061101a565b5b80604052505050565b6000611084610f8d565b90506110908282611049565b919050565b600067ffffffffffffffff8211156110b0576110af61101a565b5b6110b982611009565b9050602081019050919050565b82818337600083830152505050565b60006110e86110e384611095565b61107a565b90508281526020810184848401111561110457611103611004565b5b61110f8482856110c6565b509392505050565b600082601f83011261112c5761112b610fff565b5b813561113c8482602086016110d5565b91505092915050565b6000819050919050565b61115881611145565b811461116357600080fd5b50565b6000813590506111758161114f565b92915050565b6000806000806080858703121561119557611194610f97565b5b60006111a387828801610fea565b945050602085013567ffffffffffffffff8111156111c4576111c3610f9c565b5b6111d087828801611117565b935050604085013567ffffffffffffffff8111156111f1576111f0610f9c565b5b6111fd87828801611117565b925050606061120e87828801611166565b91505092959194509250565b600081519050919050565b600082825260208201905092915050565b6000819050602082019050919050565b600061125182610fa1565b9050919050565b61126181611246565b82525050565b61127081611145565b82525050565b600081519050919050565b600082825260208201905092915050565b60005b838110156112b0578082015181840152602081019050611295565b60008484015250505050565b60006112c782611276565b6112d18185611281565b93506112e1818560208601611292565b6112ea81611009565b840191505092915050565b600060a08301600083015161130d6000860182611258565b5060208301516113206020860182611258565b5060408301516113336040860182611267565b5060608301516113466060860182611267565b506080830151848203608086015261135e82826112bc565b9150508091505092915050565b600061137783836112f5565b905092915050565b6000602082019050919050565b60006113978261121a565b6113a18185611225565b9350836020820285016113b385611236565b8060005b858110156113ef57848403895281516113d0858261136b565b94506113db8361137f565b925060208a019950506001810190506113b7565b50829750879550505050505092915050565b6000602082019050818103600083015261141b818461138c565b905092915050565b61142c81611246565b811461143757600080fd5b50565b60008135905061144981611423565b92915050565b60006020828403121561146557611464610f97565b5b60006114738482850161143a565b91505092915050565b60006020828403121561149257611491610f97565b5b60006114a084828501611166565b91505092915050565b6114b281611145565b82525050565b60006020820190506114cd60008301846114a9565b92915050565b600080600080608085870312156114ed576114ec610f97565b5b60006114fb87828801611166565b945050602061150c87828801610fea565b935050604061151d87828801611166565b925050606085013567ffffffffffffffff81111561153e5761153d610f9c565b5b61154a87828801611117565b91505092959194509250565b60008115159050919050565b61156b81611556565b82525050565b60006020820190506115866000830184611562565b92915050565b61159581610fc1565b82525050565b600082825260208201905092915050565b60006115b782611276565b6115c1818561159b565b93506115d1818560208601611292565b6115da81611009565b840191505092915050565b600060c0820190506115fa600083018961158c565b818103602083015261160c81886115ac565b9050818103604083015261162081876115ac565b905061162f60608301866114a9565b61163c60808301856114a9565b61164960a0830184611562565b979650505050505050565b61165d81611246565b82525050565b600060a0820190506116786000830188611654565b6116856020830187611654565b61169260408301866114a9565b61169f60608301856114a9565b81810360808301526116b181846115ac565b90509695505050505050565b600080604083850312156116d4576116d3610f97565b5b60006116e285828601611166565b925050602083013567ffffffffffffffff81111561170357611702610f9c565b5b61170f85828601611117565b9150509250929050565b600060208201905061172e6000830184611654565b92915050565b7f4e487b7100000000000000000000000000000000000000000000000000000000600052601160045260246000fd5b600061176e82611145565b91507fffffffffffffffffffffffffffffffffffffffffffffffffffffffffffffffff82036117a05761179f611734565b5b600182019050919050565b7f4e487b7100000000000000000000000000000000000000000000000000000000600052602260045260246000fd5b600060028204905060018216806117f257607f821691505b602082108103611805576118046117ab565b5b50919050565b60008190508160005260206000209050919050565b60006020601f8301049050919050565b600082821b905092915050565b60006008830261186d7fffffffffffffffffffffffffffffffffffffffffffffffffffffffffffffffff82611830565b6118778683611830565b95508019841693508086168417925050509392505050565b6000819050919050565b60006118b46118af6118aa84611145565b61188f565b611145565b9050919050565b6000819050919050565b6118ce83611899565b6118e26118da826118bb565b84845461183d565b825550505050565b600090565b6118f76118ea565b6119028184846118c5565b505050565b5b818110156119265761191b6000826118ef565b600181019050611908565b5050565b601f82111561196b5761193c8161180b565b61194584611820565b81016020851015611954578190505b61196861196085611820565b830182611907565b50505b505050565b600082821c905092915050565b600061198e60001984600802611970565b1980831691505092915050565b60006119a7838361197d565b9150826002028217905092915050565b6119c082611276565b67ffffffffffffffff8111156119d9576119d861101a565b5b6119e382546117da565b6119ee82828561192a565b600060209050601f831160018114611a215760008415611a0f578287015190505b611a19858261199b565b865550611a81565b601f198416611a2f8661180b565b60005b82811015611a5757848901518255600182019150602085019450602081019050611a32565b86831015611a745784890151611a70601f89168261197d565b8355505b6001600288020188555050505b505050505050565b7f496e76616c69642070617469656e742049440000000000000000000000000000600082015250565b6000611abf60128361159b565b9150611aca82611a89565b602082019050919050565b60006020820190508181036000830152611aee81611ab2565b9050919050565b7f4f6e6c792070617469656e742063616e206d616b65207061796d656e74730000600082015250565b6000611b2b601e8361159b565b9150611b3682611af5565b602082019050919050565b60006020820190508181036000830152611b5a81611b1e565b9050919050565b7f56656e646f72206973206e6f7420766572696669656400000000000000000000600082015250565b6000611b9760168361159b565b9150611ba282611b61565b602082019050919050565b60006020820190508181036000830152611bc681611b8a565b9050919050565b7f496e73756666696369656e742066756e64730000000000000000000000000000600082015250565b6000611c0360128361159b565b9150611c0e82611bcd565b602082019050919050565b60006020820190508181036000830152611c3281611bf6565b9050919050565b6000611c4482611145565b9150611c4f83611145565b9250828203905081811115611c6757611c66611734565b5b92915050565b6000611c88611c83611c7e84610fa1565b61188f565b610fa1565b9050919050565b6000611c9a82611c6d565b9050919050565b6000611cac82611c8f565b9050919050565b611cbc81611ca1565b82525050565b6000608082019050611cd760008301876114a9565b611ce46020830186611cb3565b611cf160408301856114a9565b8181036060830152611d0381846115ac565b905095945050505050565b7f50617469656e74206973206e6f74207665726966696564000000000000000000600082015250565b6000611d4460178361159b565b9150611d4f82611d0e565b602082019050919050565b60006020820190508181036000830152611d7381611d37565b9050919050565b7f446f6e6174696f6e20616d6f756e74206d75737420626520677265617465722060008201527f7468616e20300000000000000000000000000000000000000000000000000000602082015250565b6000611dd660268361159b565b9150611de182611d7a565b604082019050919050565b60006020820190508181036000830152611e0581611dc9565b9050919050565b6000611e1782611145565b9150611e2283611145565b9250828201905080821115611e3a57611e39611734565b5b92915050565b6000606082019050611e5560008301866114a9565b611e626020830185611654565b611e6f60408301846114a9565b94935050505056fea2646970667358221220a0809ab11a1f5dc5cf573f33eb72477b995c003e08cd895dde64a0cf8318af9b64736f6c63430008120033",
  "linkReferences": {},
  "deployedLinkReferences": {}
}